:1000000004C1000022C1000020C100001EC1000088
:100010001CC100001AC1000018C1000016C1000078
:1000200014C1000012C100000C94890A0EC1000026
:100030000CC100000AC1000008C1000006C1000098
:1000400004C1000002C1000000C10000FEC00000A9
:10005000FCC00000FAC00000F8C00000F6C00000BC
:10006000F4C00000F2C00000F0C00000EEC00000CC
:10007000ECC00000EAC00000E8C00000E6C00000DC
:10008000E4C00000E2C000000C94B708DEC000002D
:10009000DCC00000DAC00000D8C00000D6C00000FC
:1000A000D4C00000D2C00000D0C00000CEC000000C
:1000B000CCC00000CAC00000C8C00000C6C000001C
:1000C000C4C00000C2C00000C0C00000BEC000002C
:1000D000BCC00000BAC00000B8C00000B6C000003C
:1000E000B4C00000B2C00000B0C00000AEC000004C
:1000F000ACC00000AAC00000A8C00000A6C000005C
:10010000A4C00000A2C00000A0C000009EC000006B
:100110009CC000009AC0000098C00000CDC0000044
:1001200094C0000092C0000090C000008EC000008B
:100130008CC0000088C4000088C00000B9C4000062
:1001400084C0000082C0000080C000007EC00000AB
:100150007CC000007AC0000078C0000076C00000BB
:1001600074C0000072C0000070C000000C949B09B5
:100170006CC000006AC0000068C0000066C00000DB
:1001800064C0000062C0000060C000005EC00000EB
:100190005CC000005AC0000058C0000056C00000FB
:1001A00054C0000052C0000050C000004EC000000B
:1001B0001EC400004AC0000048C0000046C0000045
:1001C00044C0000042C0000040C000003EC000002B
:1001D0003CC000003AC0000038C0000036C000003B
:1001E00034C0000032C0000030C000002EC000004B
:1001F0002CC000002AC0000028C000007905850539
:100200009305BB05E3050B06320611241FBECFEF95
:10021000CDBFDFE3DEBF00E00CBF10E2A0E0B0E244
:10022000EEEDF5E100E00BBF02C007900D92A832A1
:10023000B107D9F720E2A8E2B0E201C01D92AE37C3
:10024000B207E1F709D30C94ED0ADACEA0ECB1E0E5
:1002500092E01A969C931A97E82FF0E084911A96F0
:100260001C920895CF93DF9380E2F0DFC0E0D2E0EC
:100270008C8781E2EBDF8D878981806189838A8128
:1002800082608A838C8183608C8388A188A389A102
:10029000806189A38881816088838AA181608AA323
:1002A000DF91CF910895E0E0F2E080A1806880A323
:1002B0000895F9DF81E008951F920F920FB60F9213
:1002C00011240BB60F922F933F934F935F936F932D
:1002D0007F938F939F93AF93BF93EF93FF9320915F
:1002E000100230911102A8EEB3E00E94DE0ADC0198
:1002F000CB01072E7BE0B695A795979587957A95C4
:10030000D1F7702DBC016456710960932A2064E016
:100310008EE290E24BD2FF91EF91BF91AF919F910E
:100320008F917F916F915F914F913F912F910F909E
:100330000BBE0F900FBE0F901F901895E8E7F0E0EE
:100340008081809328208FE7808308950F931F93E7
:10035000CF93DF9360E076E0DB011C9200E216E0D1
:10036000F8011082E0E4F6E0108210926006C0E826
:10037000D6E0188220EA36E0D9011C9240EB50E02A
:100380009FEFDA019C9380E1DB0150968C93DA01B8
:100390009C93D80150968C93808BDA019C93888B28
:1003A0009C93D90150968C93509788EB85838183D9
:1003B00084E4828388E1828B868B8A898F7E8A8B14
:1003C00084E08D83898392E09183968398E35296AB
:1003D0009C93529715968C93159711968C939AE14E
:1003E000F801928B828791E091878283DF91CF9190
:1003F0001F910F910895E0EAF0E082818760828387
:1004000078940895009771F020E030E0E3EFF1E098
:100410003197F1F700C00000A8952F5F3F4F82177A
:100420009307A1F70895662339F120E0E0E8F6E0AC
:1004300034E0432F46838823D1F090E0A3ECB9E069
:100440001197F1F700C00000A8959F5F8913F6CFC0
:1004500010C0A3ECB9E01197F1F700C00000A89517
:100460009F5F8913F6CF2F5F6213E4CF0895358322
:10047000FACF358390E0EDCF0895ECE2F0E2808191
:100480008F5F8083908181E09E3108F480E0089541
:10049000ECE2F0E210828181813019F410922D207B
:1004A000089564E185E0BFDF80E0089580912C200D
:1004B000813021F480E0D8D681E0089580E008956D
:1004C00090912C2081E0923009F080E00895909185
:1004D0002D2081E0911180E00895E0ECF8E080812A
:1004E000806480838081806180838081808380813B
:1004F000808308958093C308E0ECF8E0828188232C
:10050000ECF78091C30808954F925F926F927F92AB
:100510008F929F92AF92BF92EF92FF920F931F9391
:10052000CF937C014A015B0128013901FC018481E0
:1005300082FF16C0D901C801689412F8B695A79534
:10054000979587951694D1F7B901A801032E36E146
:1005500076956795579547953A95D1F7302D15C003
:10056000D901C801689413F8B695A7959795879512
:100570001694D1F7B901A801032E37E17695679556
:10058000579547953A95D1F7302D88159905AA05C5
:10059000BB0508F4A2C084169506A606B70608F4A3
:1005A0009EC0F701848182FD04C0880C991CAA1C9E
:1005B000BB1CC301B201A5019401D6D72F3F310561
:1005C0004105510508F48DC08FEF90E0A0E0B0E048
:1005D000C9EF05C0281739074A075B0758F0880F8D
:1005E000991FAA1FBB1FCD3F0CF48160CF5FC7309E
:1005F00089F74DC0CC230CF04AC0D501C401880F47
:10060000991FAA1FBB1F880F991FAA1FBB1F880F06
:10061000991FAA1FBB1F481A590A6A0A7B0ACE3FB4
:10062000ECF48DEF9FEF8C1B9109C7FD939504C0EF
:10063000440C551C661C771C8A95D2F7D501C40161
:10064000B695A79597958795BC01CD01640D751D4D
:10065000861D971DA501940187D735C083E08C0FB7
:10066000A501940104C0220F331F441F551F8A9512
:10067000D2F7DA01C901B695A79597958795BC0180
:10068000CD01640D751D861D971D6ED71CC083E0BE
:100690008C0FA501940104C0220F331F441F551F66
:1006A0008A95D2F7DA01C901B695A79597958795EE
:1006B000BC01CD01640D751D861D971D55D72150B8
:1006C000310941095109832F8F70C295C07FC82B12
:1006D000F701C783268381E018C080E016C080E060
:1006E00014C0D501C401880F991FAA1FBB1F880F12
:1006F000991FAA1FBB1F880F991FAA1FBB1F481A4B
:10070000590A6A0A7B0AC9EF8CCFCF911F910F91CA
:10071000FF90EF90BF90AF909F908F907F906F90E1
:100720005F904F900895FC01918195FFFDCF60830C
:100730000895EF92FF920F931F93CF93DF937C0165
:10074000EB010FEF040F442359F010E00F5F1F4F30
:10075000060F171F6991C701E6DFC017D107D1F750
:10076000DF91CF911F910F91FF90EF900895E0E8F6
:10077000F0E08081836098ED94BF8083828180FD6A
:10078000FDCF0895836098ED94BF80938000E0E8EA
:10079000F0E0828180FDFDCF0895E0E8F0E0808107
:1007A0008C7F816098ED94BF80830895DC01ED918A
:1007B000FC912081318181E090E002C0880F991F77
:1007C0006A95E2F7822B932B808391830895DC0155
:1007D000ED91FC912081318181E090E002C0880F91
:1007E000991F6A95E2F780959095822393238083E1
:1007F00091830895EF92FF920F931F93CF93DF930E
:10080000DC01ED91FC91C081D181A1E0B0E0062E28
:1008100002C0AA0FBB1F0A94E2F7AC23BD23AB2B87
:1008200099F0122F7A01EC01D2DFF7011995882394
:1008300031F0112349F0612FCE01B8DF05C000234C
:1008400019F0602FCE01B2DFA895DF91CF911F91F3
:100850000F91FF90EF90089584E294DFF89488ED73
:1008600084BF81E080939600789468DD6FDDA6D523
:1008700034DEF8DC82D0A1D480E0F6D480ED97E0BD
:10088000C1DDECD48FE090E0BDDD81E0EDD4B3DDDF
:10089000A4D368D4811105C062E084E1C4DD24D60C
:1008A00003C066E08AE0BFDDFBD3A895FBD501D687
:1008B000A89500E020E041E75AE066E08EE290E291
:1008C00099DF06E026E041E958E065E08EE290E23B
:1008D00091DF00E025E047E558E064E08EE290E239
:1008E00089DF20E049E551E063E08EE290E282DFBB
:1008F00023E048E959E068E08EE290E27BDF20E007
:1009000047E859E067E08EE290E274DF27E047E6CF
:1009100056E062E08EE290E26DDF20E045ED54E0CB
:1009200061E08EE290E266DF06E025E047E652E015
:100930006DE08EE290E25EDF0DE021E040E652E005
:100940006CE08EE290E256DF0CE026E046E552E0F5
:100950006BE08EE290E24EDF06E026E048E452E0F3
:100960006AE08EE290E246DF0BE02AE04DE352E0DF
:1009700069E08EE290E23EDF9BCF8AE780938001C0
:10098000E0E0F9E08181806181838381886C8383E9
:1009900086E990E086A397A3E0E0FBE08181818374
:1009A00088EE93E086A397A3089510923120E2E3A6
:1009B000F0E21082118212821382148281E0858318
:1009C0001092200910922109E0E0FBE010A211A290
:1009D000A0EAB6E084E011968C93119716968C935A
:1009E00086818160868382E0808381E008951F9202
:1009F0000F920FB60F9211240BB60F928F93EF93B5
:100A0000FF93E0E0FBE086818C7F86838081807F9E
:100A10008083E0E0F9E08681816086838781816060
:100A20008783808182608083E0EAF6E084E08583CA
:100A30008283FF91EF918F910F900BBE0F900FBEAD
:100A40000F901F9018951F920F920FB60F921124BE
:100A50000BB60F922F933F934F935F936F937F93B8
:100A60008F939F93AF93BF93EF93FF93E0E0F9E0F1
:100A700086818C7F868387818C7F87838081807F3E
:100A8000808362E08EE290E291DEFF91EF91BF9170
:100A9000AF919F918F917F916F915F914F913F9116
:100AA0002F910F900BBE0F900FBE0F901F901895B7
:100AB0001F920F920FB60F9211240BB60F922F9325
:100AC0003F934F938F939F93AF93BF93EF93FF9376
:100AD00020912809309129098091312090E08730B8
:100AE000910508F0E4C0FC018827E250FF4F8F4FCA
:100AF0005DC525513109233B310518F481E0809310
:100B0000312082E080933720D2C02C5431092E301E
:100B1000310528F482E0809331201092382080E162
:100B200080933720C4C02432310590F08091382062
:100B3000E2E3F0E2408127E030E0281B310981E068
:100B400090E002C0880F991F2A95E2F7842B8083DA
:100B5000809138208F5F80933820809138208830B2
:100B600009F0A5C01092382080E18093372083E0FF
:100B7000809331209CC02432310590F08091382040
:100B8000E2E3F0E2418127E030E0281B310981E017
:100B900090E002C0880F991F2A95E2F7842B818389
:100BA000809138208F5F8093382080913820883062
:100BB00009F07DC01092382080E18093372084E0D6
:100BC0008093312074C02432310590F08091382018
:100BD000E2E3F0E2428127E030E0281B310981E0C6
:100BE00090E002C0880F991F2A95E2F7842B828338
:100BF000809138208F5F8093382080913820883012
:100C000009F055C01092382080E18093372085E0AC
:100C1000809331204CC02432310590F080913820EF
:100C2000E2E3F0E2438127E030E0281B310981E074
:100C300090E002C0880F991F2A95E2F7842B8383E6
:100C4000809138208F5F80933820809138208830C1
:100C500071F51092382080E18093372086E08093F0
:100C6000312025C02432310590F080913820E2E314
:100C7000F0E2448127E030E0281B310981E090E078
:100C800002C0880F991F2A95E2F7842B84838091F4
:100C900038208F5F8093382080913820883039F455
:100CA0001092382080E28093372010923120FF91FB
:100CB000EF91BF91AF919F918F914F913F912F9164
:100CC0000F900BBE0F900FBE0F901F901895809144
:100CD00037208032B9F4E2E3F0E240818181228161
:100CE00093813481840F820F890F831303C0109284
:100CF00037200FC0E2E3F0E2108284E081831282A9
:100D0000838307C0E2E3F0E2108282E081831282F3
:100D1000838381E00895CF93C82F81E019D28C2F6F
:100D20008F71E8DB8FEFE6DBC82F80E011D28C2FCC
:100D3000CF910895CF93DF93C82FD62F81E008D2AB
:100D40008C2F8F718062D6DB8D2FD4DB80E000D2B8
:100D5000DF91CF910895EF92FF920F931F93CF935E
:100D6000DF93C82F7B01142F81E0F2D18C2F8F717C
:100D70008062C0DB112369F0E7011150012F10E000
:100D80000F5F1F4F0E0D1F1D8991B4DBC017D107D8
:100D9000D9F780E0DDD1DF91CF911F910F91FF90C6
:100DA000EF900895FC013596A62FB72F9C019291E4
:100DB0009D93E217F307D9F70895CF93DF93CDB74B
:100DC000DEB72597CDBFDEBF9B01811114C085E042
:100DD000FB01AEE1B0E201900D928A95E1F7BE0110
:100DE0006F5F7F4FC901DEDF45E0BE016F5F7F4F60
:100DF0008AE0B1DF50C08130A1F485E0FB01A9E1B8
:100E0000B0E201900D928A95E1F7BE016F5F7F4FCE
:100E1000C901C8DF45E0BE016F5F7F4F8BE09BDFFC
:100E20003AC0823069F485E0FB01A4E1B0E20190B0
:100E30000D928A95E1F7FB0164818CE07BDF2BC08A
:100E4000833069F485E0FB01AFE0B0E201900D92E0
:100E50008A95E1F7FB0164818DE06CDF1CC0843072
:100E600069F485E0FB01AAE0B0E201900D928A9559
:100E7000E1F7FB0164818EE05DDF0DC0853059F440
:100E8000FB01A5E0B0E201900D928A95E1F7FB012C
:100E900064818FE04FDF2596CDBFDEBFDF91CF911C
:100EA0000895CF93DF93CDB7DEB72597CDBFDEBFD3
:100EB00025E0FC01A0E0B0E201900D922A95E1F757
:100EC000BE016F5F7F4F6EDF45E0BE016F5F7F4FFA
:100ED0008AE041DF45E0BE016F5F7F4F80E13BDF8D
:100EE0002596CDBFDEBFDF91CF91089581E030D14F
:100EF00081EE00DB80E02CC1089588E080934606F7
:100F000080E009DF682F6E7F80E014DF80E003DF80
:100F1000682F626080E00EDF60E787E00BDFE6DFCE
:100F200084E68A95F1F70895CF9381E011D18FEF90
:100F3000E1DAC82F80E00CD18C2FCF9108950F9368
:100F40001F93CF93DF938C01D8DF81E001D180EA3A
:100F5000D1DAE801055F1F4F8991CCDAC017D107BC
:100F6000D9F780E0F5D0E0E4F6E088E085839AE008
:100F70009A95F1F7868386E08A95F1F700C0D4DF71
:100F80008073C9F3D1DFC82F6EE585E0D3DE80E042
:100F9000C2DE682F6D7F80E0CDDEC5FB882780F93B
:100FA000DF91CF911F910F91089586E0B4DE897F84
:100FB000682F646086E0BECE089586E0ACDE877D53
:100FC000682F606286E0B6CE089580E0A4DE837F5D
:100FD000682F686080E0AECE089588E08093460672
:100FE00080E0B6D083EC99E00197F1F700C00000F3
:100FF000DCDFE3DFEADF6FEF84E09CDE60E08CE1C2
:1010000099DE6EE585E096DE6BE081E193DE60E0DF
:1010100082E090DE82E07FDE682F616082E08ADE1F
:1010200081E079DE682F616081E084DE81E073DE3B
:10103000682F626081E07EDE81E06DDE682F646093
:1010400081E078DE81E067DE682F686081E072DE33
:1010500081E061DE682F606181E06CDE81E05BDE53
:10106000682F606281E066DE6EE170E280E0A5DEFE
:1010700069E170E281E0A1DE64E170E282E09DDE80
:101080006FE070E283E099DE6AE070E284E095DE72
:1010900065E070E285E091DE80E090E202CF0895A5
:1010A00080E039DE682F6D7F80E044CE0895CF93D5
:1010B000DF93E9E3F0E2A8E2B0E28C91828312963A
:1010C0008C918383A2E3B0E215968C911597CAE5C3
:1010D000D0E29B81892B84838C91858311968C919E
:1010E0001197868312968C911297878313968C9111
:1010F0008087809152208187888182878981838738
:101100008A8184871092522081E0DF91CF910895E7
:10111000CF93DF93EC01029612DF888FDF91CF919E
:10112000089583E290E2BDDE89E390E2F1DF8091F1
:101130005120882341F081E080932D2061E085E0FB
:1011400072D981E0089565E085E06DD980E0089569
:10115000882321F080E180934606089580E1809302
:101160004506089580E0D7DD8695817008951F9229
:101170000F920FB60F9211240BB60F928F93EF932D
:10118000FF93809152208F5F8093522080912B207B
:10119000882349F0E8E4F0E08081816080838895CD
:1011A00080818E7F8083FF91EF918F910F900BBE96
:1011B0000F900FBE0F901F9018950F931F93CF9312
:1011C000DF93E0E6F6E080E88583818380E4828334
:1011D000C0EBD9E08D8183608D8300E814E82EE1B7
:1011E00030E040E855E260E070E080EB99E08CD9B7
:1011F0008C8188608C83DF91CF911F910F9108952E
:10120000DC0182E48C938DE411968C9311971296F5
:101210006C93129713961C92139714964C931497F1
:10122000FD01AD014B5F5F4F20E030E08191280F61
:10123000311DE417F507D1F715963C9315971696CF
:101240002C93169747E0BD0180EB99E072DA8FE4AA
:1012500093EC0197F1F700C00000089540E061EEC3
:1012600083E590E2CDCF0895882331F040E064EE2D
:1012700083E590E2C5CF089541E064EE83E590E216
:10128000BFCF089581E0F0DFEEE5F0E24CE750E2F9
:1012900080E090E02191820F911DE417F507D1F7CE
:1012A00020917C2029132BC090917D20981327C07A
:1012B00010925D2080916820882321F08FEF809329
:1012C0005A2004C08091692080935A2080916A201E
:1012D000882321F08FEF80935B2004C080916B20E6
:1012E00080935B2080916C20882321F08FEF809386
:1012F0005C20089580916D2080935C200895EAE53C
:10130000F0E280E4838310821182128208951092A9
:101310003020E0EBF9E08381806183838481806108
:10132000848340E062EE83E590E26ADF81E0089525
:10133000A9DF81E008951F920F920FB60F9211243A
:101340000BB60F922F933F934F935F936F937F93BF
:101350008F939F93AF93BF93EF93FF93E0913020D0
:101360008091B009F0E0E25AFF4D808380913020F7
:101370008F5F8093302080913020813260F0E0EBED
:10138000F9E084818F7E848383818F7C838368E00E
:101390008EE290E20BDAFF91EF91BF91AF919F91B6
:1013A0008F917F916F915F914F913F912F910F900E
:1013B0000BBE0F900FBE0F901F901895CF93DF9329
:1013C000E0E7F0E0808180618083E1E7F0E0808108
:1013D00084608083A2E7B0E08C9184608C938C91D0
:1013E00082608C93808181608083C3E7D0E08881B4
:1013F0008064888384E790E0DC012C9120642C9346
:10140000E5E7F0E020812064208346E750E0DA0140
:101410002C9120642C93288120612883DC012C915D
:1014200020612C93208120612083DA012C9120619E
:101430002C932881206228832081206220832C9194
:1014400020622C93DC012C9128602C932081286051
:101450002083DA012C9128602C9328812460288332
:10146000DC012C9124602C93208124602083DA01FC
:101470002C9124602C932881216028832081216075
:101480002083288122602883DC012C9122602C9308
:10149000808182608083FA01808182608083DF9115
:1014A000CF910895E8E4F0E08081817F86608083B9
:1014B000089581E080932B2070D9A895E8E4F0E0AE
:1014C000808181608083889580818E7F808308956C
:1014D00010922B20E0E0F4E0818180FDFDCF47C930
:1014E0000895E7DF81E00895E0E4F0E08381816022
:1014F0008383E0E0F4E080E395E78287938788EADE
:1015000091E68087918782818360828381E08083F6
:1015100008951F920F920FB60F9211240BB60F92DF
:101520002F933F934F935F936F937F938F939F93EB
:10153000AF93BF93EF93FF93CBDF69E08EE290E22E
:1015400035D9FF91EF91BF91AF919F918F917F918D
:101550006F915F914F913F912F910F900BBE0F9024
:101560000FBE0F901F901895A1E21A2EAA1BBB1B4D
:10157000FD010DC0AA1FBB1FEE1FFF1FA217B3075F
:10158000E407F50720F0A21BB30BE40BF50B661F75
:10159000771F881F991F1A9469F760957095809539
:1015A00090959B01AC01BD01CF010895EE0FFF1F87
:1015B000881F8BBF0790F691E02D1994A29FB00170
:1015C000B39FC001A39F700D811D1124911DB29F77
:0E15D000700D811D1124911D0895F894FFCF18
:1015DE00E8E8F0F0E2C1C2C2C2C6C1C2C2C2C5C111
:1015EE00C2C2C2C4C1C2C2C2C3C1C2C2C2C2E8E880
:0815FE00F0F0E2E8E8F0F0E291
:00000001FF
